{
  "_format": "hh-sol-artifact-1",
  "contractName": "SwagDogs",
  "sourceName": "contracts/SwagDogs.sol",
  "abi": [
    {
      "inputs": [],
      "stateMutability": "nonpayable",
      "type": "constructor"
    },
    {
      "anonymous": false,
      "inputs": [
        {
          "indexed": true,
          "internalType": "address",
          "name": "owner",
          "type": "address"
        },
        {
          "indexed": true,
          "internalType": "address",
          "name": "approved",
          "type": "address"
        },
        {
          "indexed": true,
          "internalType": "uint256",
          "name": "tokenId",
          "type": "uint256"
        }
      ],
      "name": "Approval",
      "type": "event"
    },
    {
      "anonymous": false,
      "inputs": [
        {
          "indexed": true,
          "internalType": "address",
          "name": "owner",
          "type": "address"
        },
        {
          "indexed": true,
          "internalType": "address",
          "name": "operator",
          "type": "address"
        },
        {
          "indexed": false,
          "internalType": "bool",
          "name": "approved",
          "type": "bool"
        }
      ],
      "name": "ApprovalForAll",
      "type": "event"
    },
    {
      "anonymous": false,
      "inputs": [
        {
          "indexed": true,
          "internalType": "address",
          "name": "previousOwner",
          "type": "address"
        },
        {
          "indexed": true,
          "internalType": "address",
          "name": "newOwner",
          "type": "address"
        }
      ],
      "name": "OwnershipTransferred",
      "type": "event"
    },
    {
      "anonymous": false,
      "inputs": [
        {
          "indexed": true,
          "internalType": "address",
          "name": "from",
          "type": "address"
        },
        {
          "indexed": true,
          "internalType": "address",
          "name": "to",
          "type": "address"
        },
        {
          "indexed": true,
          "internalType": "uint256",
          "name": "tokenId",
          "type": "uint256"
        }
      ],
      "name": "Transfer",
      "type": "event"
    },
    {
      "inputs": [
        {
          "internalType": "address",
          "name": "to",
          "type": "address"
        },
        {
          "internalType": "uint256",
          "name": "tokenId",
          "type": "uint256"
        }
      ],
      "name": "approve",
      "outputs": [],
      "stateMutability": "nonpayable",
      "type": "function"
    },
    {
      "inputs": [
        {
          "internalType": "address",
          "name": "owner",
          "type": "address"
        }
      ],
      "name": "balanceOf",
      "outputs": [
        {
          "internalType": "uint256",
          "name": "",
          "type": "uint256"
        }
      ],
      "stateMutability": "view",
      "type": "function"
    },
    {
      "inputs": [],
      "name": "count",
      "outputs": [
        {
          "internalType": "uint256",
          "name": "",
          "type": "uint256"
        }
      ],
      "stateMutability": "view",
      "type": "function"
    },
    {
      "inputs": [
        {
          "internalType": "uint256",
          "name": "tokenId",
          "type": "uint256"
        }
      ],
      "name": "getApproved",
      "outputs": [
        {
          "internalType": "address",
          "name": "",
          "type": "address"
        }
      ],
      "stateMutability": "view",
      "type": "function"
    },
    {
      "inputs": [
        {
          "internalType": "address",
          "name": "owner",
          "type": "address"
        },
        {
          "internalType": "address",
          "name": "operator",
          "type": "address"
        }
      ],
      "name": "isApprovedForAll",
      "outputs": [
        {
          "internalType": "bool",
          "name": "",
          "type": "bool"
        }
      ],
      "stateMutability": "view",
      "type": "function"
    },
    {
      "inputs": [
        {
          "internalType": "string",
          "name": "uri",
          "type": "string"
        }
      ],
      "name": "isContentOwned",
      "outputs": [
        {
          "internalType": "bool",
          "name": "",
          "type": "bool"
        }
      ],
      "stateMutability": "view",
      "type": "function"
    },
    {
      "inputs": [],
      "name": "name",
      "outputs": [
        {
          "internalType": "string",
          "name": "",
          "type": "string"
        }
      ],
      "stateMutability": "view",
      "type": "function"
    },
    {
      "inputs": [],
      "name": "owner",
      "outputs": [
        {
          "internalType": "address",
          "name": "",
          "type": "address"
        }
      ],
      "stateMutability": "view",
      "type": "function"
    },
    {
      "inputs": [
        {
          "internalType": "uint256",
          "name": "tokenId",
          "type": "uint256"
        }
      ],
      "name": "ownerOf",
      "outputs": [
        {
          "internalType": "address",
          "name": "",
          "type": "address"
        }
      ],
      "stateMutability": "view",
      "type": "function"
    },
    {
      "inputs": [
        {
          "internalType": "address",
          "name": "to",
          "type": "address"
        },
        {
          "internalType": "string",
          "name": "uri",
          "type": "string"
        }
      ],
      "name": "payToMint",
      "outputs": [
        {
          "internalType": "uint256",
          "name": "",
          "type": "uint256"
        }
      ],
      "stateMutability": "payable",
      "type": "function"
    },
    {
      "inputs": [],
      "name": "renounceOwnership",
      "outputs": [],
      "stateMutability": "nonpayable",
      "type": "function"
    },
    {
      "inputs": [
        {
          "internalType": "address",
          "name": "to",
          "type": "address"
        },
        {
          "internalType": "string",
          "name": "uri",
          "type": "string"
        }
      ],
      "name": "safeMint",
      "outputs": [],
      "stateMutability": "nonpayable",
      "type": "function"
    },
    {
      "inputs": [
        {
          "internalType": "address",
          "name": "from",
          "type": "address"
        },
        {
          "internalType": "address",
          "name": "to",
          "type": "address"
        },
        {
          "internalType": "uint256",
          "name": "tokenId",
          "type": "uint256"
        }
      ],
      "name": "safeTransferFrom",
      "outputs": [],
      "stateMutability": "nonpayable",
      "type": "function"
    },
    {
      "inputs": [
        {
          "internalType": "address",
          "name": "from",
          "type": "address"
        },
        {
          "internalType": "address",
          "name": "to",
          "type": "address"
        },
        {
          "internalType": "uint256",
          "name": "tokenId",
          "type": "uint256"
        },
        {
          "internalType": "bytes",
          "name": "data",
          "type": "bytes"
        }
      ],
      "name": "safeTransferFrom",
      "outputs": [],
      "stateMutability": "nonpayable",
      "type": "function"
    },
    {
      "inputs": [
        {
          "internalType": "address",
          "name": "operator",
          "type": "address"
        },
        {
          "internalType": "bool",
          "name": "approved",
          "type": "bool"
        }
      ],
      "name": "setApprovalForAll",
      "outputs": [],
      "stateMutability": "nonpayable",
      "type": "function"
    },
    {
      "inputs": [
        {
          "internalType": "bytes4",
          "name": "interfaceId",
          "type": "bytes4"
        }
      ],
      "name": "supportsInterface",
      "outputs": [
        {
          "internalType": "bool",
          "name": "",
          "type": "bool"
        }
      ],
      "stateMutability": "view",
      "type": "function"
    },
    {
      "inputs": [],
      "name": "symbol",
      "outputs": [
        {
          "internalType": "string",
          "name": "",
          "type": "string"
        }
      ],
      "stateMutability": "view",
      "type": "function"
    },
    {
      "inputs": [
        {
          "internalType": "uint256",
          "name": "tokenId",
          "type": "uint256"
        }
      ],
      "name": "tokenURI",
      "outputs": [
        {
          "internalType": "string",
          "name": "",
          "type": "string"
        }
      ],
      "stateMutability": "view",
      "type": "function"
    },
    {
      "inputs": [
        {
          "internalType": "address",
          "name": "from",
          "type": "address"
        },
        {
          "internalType": "address",
          "name": "to",
          "type": "address"
        },
        {
          "internalType": "uint256",
          "name": "tokenId",
          "type": "uint256"
        }
      ],
      "name": "transferFrom",
      "outputs": [],
      "stateMutability": "nonpayable",
      "type": "function"
    },
    {
      "inputs": [
        {
          "internalType": "address",
          "name": "newOwner",
          "type": "address"
        }
      ],
      "name": "transferOwnership",
      "outputs": [],
      "stateMutability": "nonpayable",
      "type": "function"
    }
  ],
  "bytecode": "0x60806040523480156200001157600080fd5b506040518060400160405280600881526020017f53776167446f67730000000000000000000000000000000000000000000000008152506040518060400160405280600381526020017f4d544b000000000000000000000000000000000000000000000000000000000081525081600090816200008f919062000412565b508060019081620000a1919062000412565b505050620000c4620000b8620000ca60201b60201c565b620000d260201b60201c565b620004f9565b600033905090565b6000600760009054906101000a900473ffffffffffffffffffffffffffffffffffffffff16905081600760006101000a81548173ffffffffffffffffffffffffffffffffffffffff021916908373ffffffffffffffffffffffffffffffffffffffff1602179055508173ffffffffffffffffffffffffffffffffffffffff168173ffffffffffffffffffffffffffffffffffffffff167f8be0079c531659141344cd1fd0a4f28419497f9722a3daafe3b4186f6b6457e060405160405180910390a35050565b600081519050919050565b7f4e487b7100000000000000000000000000000000000000000000000000000000600052604160045260246000fd5b7f4e487b7100000000000000000000000000000000000000000000000000000000600052602260045260246000fd5b600060028204905060018216806200021a57607f821691505b60208210810362000230576200022f620001d2565b5b50919050565b60008190508160005260206000209050919050565b60006020601f8301049050919050565b600082821b905092915050565b6000600883026200029a7fffffffffffffffffffffffffffffffffffffffffffffffffffffffffffffffff826200025b565b620002a686836200025b565b95508019841693508086168417925050509392505050565b6000819050919050565b6000819050919050565b6000620002f3620002ed620002e784620002be565b620002c8565b620002be565b9050919050565b6000819050919050565b6200030f83620002d2565b620003276200031e82620002fa565b84845462000268565b825550505050565b600090565b6200033e6200032f565b6200034b81848462000304565b505050565b5b8181101562000373576200036760008262000334565b60018101905062000351565b5050565b601f821115620003c2576200038c8162000236565b62000397846200024b565b81016020851015620003a7578190505b620003bf620003b6856200024b565b83018262000350565b50505b505050565b600082821c905092915050565b6000620003e760001984600802620003c7565b1980831691505092915050565b6000620004028383620003d4565b9150826002028217905092915050565b6200041d8262000198565b67ffffffffffffffff811115620004395762000438620001a3565b5b62000445825462000201565b6200045282828562000377565b600060209050601f8311600181146200048a576000841562000475578287015190505b620004818582620003f4565b865550620004f1565b601f1984166200049a8662000236565b60005b82811015620004c4578489015182556001820191506020850194506020810190506200049d565b86831015620004e45784890151620004e0601f891682620003d4565b8355505b6001600288020188555050505b505050505050565b61346680620005096000396000f3fe60806040526004361061011f5760003560e01c8063715018a6116100a0578063b88d4fde11610064578063b88d4fde146103ec578063c87b56dd14610415578063d204c45e14610452578063e985e9c51461047b578063f2fde38b146104b85761011f565b8063715018a6146103195780638da5cb5b1461033057806395d89b411461035b5780639f1cabc614610386578063a22cb465146103c35761011f565b806323b872dd116100e757806323b872dd1461021d57806342842e0e14610246578063615fd9e21461026f5780636352211e1461029f57806370a08231146102dc5761011f565b806301ffc9a71461012457806306661abd1461016157806306fdde031461018c578063081812fc146101b7578063095ea7b3146101f4575b600080fd5b34801561013057600080fd5b5061014b60048036038101906101469190612042565b6104e1565b604051610158919061208a565b60405180910390f35b34801561016d57600080fd5b506101766105c3565b60405161018391906120be565b60405180910390f35b34801561019857600080fd5b506101a16105d4565b6040516101ae9190612169565b60405180910390f35b3480156101c357600080fd5b506101de60048036038101906101d991906121b7565b610666565b6040516101eb9190612225565b60405180910390f35b34801561020057600080fd5b5061021b6004803603810190610216919061226c565b6106ac565b005b34801561022957600080fd5b50610244600480360381019061023f91906122ac565b6107c3565b005b34801561025257600080fd5b5061026d600480360381019061026891906122ac565b610823565b005b61028960048036038101906102849190612434565b610843565b60405161029691906120be565b60405180910390f35b3480156102ab57600080fd5b506102c660048036038101906102c191906121b7565b61096e565b6040516102d39190612225565b60405180910390f35b3480156102e857600080fd5b5061030360048036038101906102fe9190612490565b6109f4565b60405161031091906120be565b60405180910390f35b34801561032557600080fd5b5061032e610aab565b005b34801561033c57600080fd5b50610345610abf565b6040516103529190612225565b60405180910390f35b34801561036757600080fd5b50610370610ae9565b60405161037d9190612169565b60405180910390f35b34801561039257600080fd5b506103ad60048036038101906103a891906124bd565b610b7b565b6040516103ba919061208a565b60405180910390f35b3480156103cf57600080fd5b506103ea60048036038101906103e59190612532565b610bb6565b005b3480156103f857600080fd5b50610413600480360381019061040e9190612613565b610bcc565b005b34801561042157600080fd5b5061043c600480360381019061043791906121b7565b610c2e565b6040516104499190612169565b60405180910390f35b34801561045e57600080fd5b5061047960048036038101906104749190612434565b610c40565b005b34801561048757600080fd5b506104a2600480360381019061049d9190612696565b610c79565b6040516104af919061208a565b60405180910390f35b3480156104c457600080fd5b506104df60048036038101906104da9190612490565b610d0d565b005b60007f80ac58cd000000000000000000000000000000000000000000000000000000007bffffffffffffffffffffffffffffffffffffffffffffffffffffffff1916827bffffffffffffffffffffffffffffffffffffffffffffffffffffffff191614806105ac57507f5b5e139f000000000000000000000000000000000000000000000000000000007bffffffffffffffffffffffffffffffffffffffffffffffffffffffff1916827bffffffffffffffffffffffffffffffffffffffffffffffffffffffff1916145b806105bc57506105bb82610d90565b5b9050919050565b60006105cf6008610dfa565b905090565b6060600080546105e390612705565b80601f016020809104026020016040519081016040528092919081815260200182805461060f90612705565b801561065c5780601f106106315761010080835404028352916020019161065c565b820191906000526020600020905b81548152906001019060200180831161063f57829003601f168201915b5050505050905090565b600061067182610e08565b6004600083815260200190815260200160002060009054906101000a900473ffffffffffffffffffffffffffffffffffffffff169050919050565b60006106b78261096e565b90508073ffffffffffffffffffffffffffffffffffffffff168373ffffffffffffffffffffffffffffffffffffffff1603610727576040517f08c379a000000000000000000000000000000000000000000000000000000000815260040161071e906127a8565b60405180910390fd5b8073ffffffffffffffffffffffffffffffffffffffff16610746610e53565b73ffffffffffffffffffffffffffffffffffffffff16148061077557506107748161076f610e53565b610c79565b5b6107b4576040517f08c379a00000000000000000000000000000000000000000000000000000000081526004016107ab9061283a565b60405180910390fd5b6107be8383610e5b565b505050565b6107d46107ce610e53565b82610f14565b610813576040517f08c379a000000000000000000000000000000000000000000000000000000000815260040161080a906128cc565b60405180910390fd5b61081e838383610fa9565b505050565b61083e83838360405180602001604052806000815250610bcc565b505050565b600060016009836040516108579190612928565b908152602001604051809103902060009054906101000a900460ff1660ff16036108b6576040517f08c379a00000000000000000000000000000000000000000000000000000000081526004016108ad9061298b565b60405180910390fd5b66b1a2bc2ec50000341015610900576040517f08c379a00000000000000000000000000000000000000000000000000000000081526004016108f7906129f7565b60405180910390fd5b600061090c6008610dfa565b905061091860086112a2565b600160098460405161092a9190612928565b908152602001604051809103902060006101000a81548160ff021916908360ff16021790555061095a84826112b8565b61096481846112d6565b8091505092915050565b60008061097a83611343565b9050600073ffffffffffffffffffffffffffffffffffffffff168173ffffffffffffffffffffffffffffffffffffffff16036109eb576040517f08c379a00000000000000000000000000000000000000000000000000000000081526004016109e290612a63565b60405180910390fd5b80915050919050565b60008073ffffffffffffffffffffffffffffffffffffffff168273ffffffffffffffffffffffffffffffffffffffff1603610a64576040517f08c379a0000000000000000000000000000000000000000000000000000000008152600401610a5b90612af5565b60405180910390fd5b600360008373ffffffffffffffffffffffffffffffffffffffff1673ffffffffffffffffffffffffffffffffffffffff168152602001908152602001600020549050919050565b610ab3611380565b610abd60006113fe565b565b6000600760009054906101000a900473ffffffffffffffffffffffffffffffffffffffff16905090565b606060018054610af890612705565b80601f0160208091040260200160405190810160405280929190818152602001828054610b2490612705565b8015610b715780601f10610b4657610100808354040283529160200191610b71565b820191906000526020600020905b815481529060010190602001808311610b5457829003601f168201915b5050505050905090565b60006001600983604051610b8f9190612928565b908152602001604051809103902060009054906101000a900460ff1660ff16149050919050565b610bc8610bc1610e53565b83836114c4565b5050565b610bdd610bd7610e53565b83610f14565b610c1c576040517f08c379a0000000000000000000000000000000000000000000000000000000008152600401610c13906128cc565b60405180910390fd5b610c2884848484611630565b50505050565b6060610c398261168c565b9050919050565b610c48611380565b6000610c546008610dfa565b9050610c6060086112a2565b610c6a83826112b8565b610c7481836112d6565b505050565b6000600560008473ffffffffffffffffffffffffffffffffffffffff1673ffffffffffffffffffffffffffffffffffffffff16815260200190815260200160002060008373ffffffffffffffffffffffffffffffffffffffff1673ffffffffffffffffffffffffffffffffffffffff16815260200190815260200160002060009054906101000a900460ff16905092915050565b610d15611380565b600073ffffffffffffffffffffffffffffffffffffffff168173ffffffffffffffffffffffffffffffffffffffff1603610d84576040517f08c379a0000000000000000000000000000000000000000000000000000000008152600401610d7b90612b87565b60405180910390fd5b610d8d816113fe565b50565b60007f01ffc9a7000000000000000000000000000000000000000000000000000000007bffffffffffffffffffffffffffffffffffffffffffffffffffffffff1916827bffffffffffffffffffffffffffffffffffffffffffffffffffffffff1916149050919050565b600081600001549050919050565b610e118161179e565b610e50576040517f08c379a0000000000000000000000000000000000000000000000000000000008152600401610e4790612a63565b60405180910390fd5b50565b600033905090565b816004600083815260200190815260200160002060006101000a81548173ffffffffffffffffffffffffffffffffffffffff021916908373ffffffffffffffffffffffffffffffffffffffff160217905550808273ffffffffffffffffffffffffffffffffffffffff16610ece8361096e565b73ffffffffffffffffffffffffffffffffffffffff167f8c5be1e5ebec7d5bd14f71427d1e84f3dd0314c0f7b2291e5b200ac8c7c3b92560405160405180910390a45050565b600080610f208361096e565b90508073ffffffffffffffffffffffffffffffffffffffff168473ffffffffffffffffffffffffffffffffffffffff161480610f625750610f618185610c79565b5b80610fa057508373ffffffffffffffffffffffffffffffffffffffff16610f8884610666565b73ffffffffffffffffffffffffffffffffffffffff16145b91505092915050565b8273ffffffffffffffffffffffffffffffffffffffff16610fc98261096e565b73ffffffffffffffffffffffffffffffffffffffff161461101f576040517f08c379a000000000000000000000000000000000000000000000000000000000815260040161101690612c19565b60405180910390fd5b600073ffffffffffffffffffffffffffffffffffffffff168273ffffffffffffffffffffffffffffffffffffffff160361108e576040517f08c379a000000000000000000000000000000000000000000000000000000000815260040161108590612cab565b60405180910390fd5b61109b83838360016117df565b8273ffffffffffffffffffffffffffffffffffffffff166110bb8261096e565b73ffffffffffffffffffffffffffffffffffffffff1614611111576040517f08c379a000000000000000000000000000000000000000000000000000000000815260040161110890612c19565b60405180910390fd5b6004600082815260200190815260200160002060006101000a81549073ffffffffffffffffffffffffffffffffffffffff02191690556001600360008573ffffffffffffffffffffffffffffffffffffffff1673ffffffffffffffffffffffffffffffffffffffff168152602001908152602001600020600082825403925050819055506001600360008473ffffffffffffffffffffffffffffffffffffffff1673ffffffffffffffffffffffffffffffffffffffff16815260200190815260200160002060008282540192505081905550816002600083815260200190815260200160002060006101000a81548173ffffffffffffffffffffffffffffffffffffffff021916908373ffffffffffffffffffffffffffffffffffffffff160217905550808273ffffffffffffffffffffffffffffffffffffffff168473ffffffffffffffffffffffffffffffffffffffff167fddf252ad1be2c89b69c2b068fc378daa952ba7f163c4a11628f55a4df523b3ef60405160405180910390a461129d8383836001611905565b505050565b6001816000016000828254019250508190555050565b6112d282826040518060200160405280600081525061190b565b5050565b6112df8261179e565b61131e576040517f08c379a000000000000000000000000000000000000000000000000000000000815260040161131590612d3d565b60405180910390fd5b8060066000848152602001908152602001600020908161133e9190612f09565b505050565b60006002600083815260200190815260200160002060009054906101000a900473ffffffffffffffffffffffffffffffffffffffff169050919050565b611388610e53565b73ffffffffffffffffffffffffffffffffffffffff166113a6610abf565b73ffffffffffffffffffffffffffffffffffffffff16146113fc576040517f08c379a00000000000000000000000000000000000000000000000000000000081526004016113f390613027565b60405180910390fd5b565b6000600760009054906101000a900473ffffffffffffffffffffffffffffffffffffffff16905081600760006101000a81548173ffffffffffffffffffffffffffffffffffffffff021916908373ffffffffffffffffffffffffffffffffffffffff1602179055508173ffffffffffffffffffffffffffffffffffffffff168173ffffffffffffffffffffffffffffffffffffffff167f8be0079c531659141344cd1fd0a4f28419497f9722a3daafe3b4186f6b6457e060405160405180910390a35050565b8173ffffffffffffffffffffffffffffffffffffffff168373ffffffffffffffffffffffffffffffffffffffff1603611532576040517f08c379a000000000000000000000000000000000000000000000000000000000815260040161152990613093565b60405180910390fd5b80600560008573ffffffffffffffffffffffffffffffffffffffff1673ffffffffffffffffffffffffffffffffffffffff16815260200190815260200160002060008473ffffffffffffffffffffffffffffffffffffffff1673ffffffffffffffffffffffffffffffffffffffff16815260200190815260200160002060006101000a81548160ff0219169083151502179055508173ffffffffffffffffffffffffffffffffffffffff168373ffffffffffffffffffffffffffffffffffffffff167f17307eab39ab6107e8899845ad3d59bd9653f200f220920489ca2b5937696c3183604051611623919061208a565b60405180910390a3505050565b61163b848484610fa9565b61164784848484611966565b611686576040517f08c379a000000000000000000000000000000000000000000000000000000000815260040161167d90613125565b60405180910390fd5b50505050565b606061169782610e08565b60006006600084815260200190815260200160002080546116b790612705565b80601f01602080910402602001604051908101604052809291908181526020018280546116e390612705565b80156117305780601f1061170557610100808354040283529160200191611730565b820191906000526020600020905b81548152906001019060200180831161171357829003601f168201915b505050505090506000611741611aed565b90506000815103611756578192505050611799565b60008251111561178b578082604051602001611773929190613145565b60405160208183030381529060405292505050611799565b61179484611b0d565b925050505b919050565b60008073ffffffffffffffffffffffffffffffffffffffff166117c083611343565b73ffffffffffffffffffffffffffffffffffffffff1614159050919050565b60018111156118ff57600073ffffffffffffffffffffffffffffffffffffffff168473ffffffffffffffffffffffffffffffffffffffff16146118735780600360008673ffffffffffffffffffffffffffffffffffffffff1673ffffffffffffffffffffffffffffffffffffffff168152602001908152602001600020600082825461186b9190613198565b925050819055505b600073ffffffffffffffffffffffffffffffffffffffff168373ffffffffffffffffffffffffffffffffffffffff16146118fe5780600360008573ffffffffffffffffffffffffffffffffffffffff1673ffffffffffffffffffffffffffffffffffffffff16815260200190815260200160002060008282546118f691906131cc565b925050819055505b5b50505050565b50505050565b6119158383611b75565b6119226000848484611966565b611961576040517f08c379a000000000000000000000000000000000000000000000000000000000815260040161195890613125565b60405180910390fd5b505050565b60006119878473ffffffffffffffffffffffffffffffffffffffff16611d92565b15611ae0578373ffffffffffffffffffffffffffffffffffffffff1663150b7a026119b0610e53565b8786866040518563ffffffff1660e01b81526004016119d29493929190613255565b6020604051808303816000875af1925050508015611a0e57506040513d601f19601f82011682018060405250810190611a0b91906132b6565b60015b611a90573d8060008114611a3e576040519150601f19603f3d011682016040523d82523d6000602084013e611a43565b606091505b506000815103611a88576040517f08c379a0000000000000000000000000000000000000000000000000000000008152600401611a7f90613125565b60405180910390fd5b805181602001fd5b63150b7a0260e01b7bffffffffffffffffffffffffffffffffffffffffffffffffffffffff1916817bffffffffffffffffffffffffffffffffffffffffffffffffffffffff191614915050611ae5565b600190505b949350505050565b60606040518060800160405280604681526020016133eb60469139905090565b6060611b1882610e08565b6000611b22611aed565b90506000815111611b425760405180602001604052806000815250611b6d565b80611b4c84611db5565b604051602001611b5d929190613145565b6040516020818303038152906040525b915050919050565b600073ffffffffffffffffffffffffffffffffffffffff168273ffffffffffffffffffffffffffffffffffffffff1603611be4576040517f08c379a0000000000000000000000000000000000000000000000000000000008152600401611bdb9061332f565b60405180910390fd5b611bed8161179e565b15611c2d576040517f08c379a0000000000000000000000000000000000000000000000000000000008152600401611c249061339b565b60405180910390fd5b611c3b6000838360016117df565b611c448161179e565b15611c84576040517f08c379a0000000000000000000000000000000000000000000000000000000008152600401611c7b9061339b565b60405180910390fd5b6001600360008473ffffffffffffffffffffffffffffffffffffffff1673ffffffffffffffffffffffffffffffffffffffff16815260200190815260200160002060008282540192505081905550816002600083815260200190815260200160002060006101000a81548173ffffffffffffffffffffffffffffffffffffffff021916908373ffffffffffffffffffffffffffffffffffffffff160217905550808273ffffffffffffffffffffffffffffffffffffffff16600073ffffffffffffffffffffffffffffffffffffffff167fddf252ad1be2c89b69c2b068fc378daa952ba7f163c4a11628f55a4df523b3ef60405160405180910390a4611d8e600083836001611905565b5050565b6000808273ffffffffffffffffffffffffffffffffffffffff163b119050919050565b606060006001611dc484611e83565b01905060008167ffffffffffffffff811115611de357611de2612309565b5b6040519080825280601f01601f191660200182016040528015611e155781602001600182028036833780820191505090505b509050600082602001820190505b600115611e78578080600190039150507f3031323334353637383961626364656600000000000000000000000000000000600a86061a8153600a8581611e6c57611e6b6133bb565b5b04945060008503611e23575b819350505050919050565b600080600090507a184f03e93ff9f4daa797ed6e38ed64bf6a1f0100000000000000008310611ee1577a184f03e93ff9f4daa797ed6e38ed64bf6a1f0100000000000000008381611ed757611ed66133bb565b5b0492506040810190505b6d04ee2d6d415b85acef81000000008310611f1e576d04ee2d6d415b85acef81000000008381611f1457611f136133bb565b5b0492506020810190505b662386f26fc100008310611f4d57662386f26fc100008381611f4357611f426133bb565b5b0492506010810190505b6305f5e1008310611f76576305f5e1008381611f6c57611f6b6133bb565b5b0492506008810190505b6127108310611f9b576127108381611f9157611f906133bb565b5b0492506004810190505b60648310611fbe5760648381611fb457611fb36133bb565b5b0492506002810190505b600a8310611fcd576001810190505b80915050919050565b6000604051905090565b600080fd5b600080fd5b60007fffffffff0000000000000000000000000000000000000000000000000000000082169050919050565b61201f81611fea565b811461202a57600080fd5b50565b60008135905061203c81612016565b92915050565b60006020828403121561205857612057611fe0565b5b60006120668482850161202d565b91505092915050565b60008115159050919050565b6120848161206f565b82525050565b600060208201905061209f600083018461207b565b92915050565b6000819050919050565b6120b8816120a5565b82525050565b60006020820190506120d360008301846120af565b92915050565b600081519050919050565b600082825260208201905092915050565b60005b838110156121135780820151818401526020810190506120f8565b60008484015250505050565b6000601f19601f8301169050919050565b600061213b826120d9565b61214581856120e4565b93506121558185602086016120f5565b61215e8161211f565b840191505092915050565b600060208201905081810360008301526121838184612130565b905092915050565b612194816120a5565b811461219f57600080fd5b50565b6000813590506121b18161218b565b92915050565b6000602082840312156121cd576121cc611fe0565b5b60006121db848285016121a2565b91505092915050565b600073ffffffffffffffffffffffffffffffffffffffff82169050919050565b600061220f826121e4565b9050919050565b61221f81612204565b82525050565b600060208201905061223a6000830184612216565b92915050565b61224981612204565b811461225457600080fd5b50565b60008135905061226681612240565b92915050565b6000806040838503121561228357612282611fe0565b5b600061229185828601612257565b92505060206122a2858286016121a2565b9150509250929050565b6000806000606084860312156122c5576122c4611fe0565b5b60006122d386828701612257565b93505060206122e486828701612257565b92505060406122f5868287016121a2565b9150509250925092565b600080fd5b600080fd5b7f4e487b7100000000000000000000000000000000000000000000000000000000600052604160045260246000fd5b6123418261211f565b810181811067ffffffffffffffff821117156123605761235f612309565b5b80604052505050565b6000612373611fd6565b905061237f8282612338565b919050565b600067ffffffffffffffff82111561239f5761239e612309565b5b6123a88261211f565b9050602081019050919050565b82818337600083830152505050565b60006123d76123d284612384565b612369565b9050828152602081018484840111156123f3576123f2612304565b5b6123fe8482856123b5565b509392505050565b600082601f83011261241b5761241a6122ff565b5b813561242b8482602086016123c4565b91505092915050565b6000806040838503121561244b5761244a611fe0565b5b600061245985828601612257565b925050602083013567ffffffffffffffff81111561247a57612479611fe5565b5b61248685828601612406565b9150509250929050565b6000602082840312156124a6576124a5611fe0565b5b60006124b484828501612257565b91505092915050565b6000602082840312156124d3576124d2611fe0565b5b600082013567ffffffffffffffff8111156124f1576124f0611fe5565b5b6124fd84828501612406565b91505092915050565b61250f8161206f565b811461251a57600080fd5b50565b60008135905061252c81612506565b92915050565b6000806040838503121561254957612548611fe0565b5b600061255785828601612257565b92505060206125688582860161251d565b9150509250929050565b600067ffffffffffffffff82111561258d5761258c612309565b5b6125968261211f565b9050602081019050919050565b60006125b66125b184612572565b612369565b9050828152602081018484840111156125d2576125d1612304565b5b6125dd8482856123b5565b509392505050565b600082601f8301126125fa576125f96122ff565b5b813561260a8482602086016125a3565b91505092915050565b6000806000806080858703121561262d5761262c611fe0565b5b600061263b87828801612257565b945050602061264c87828801612257565b935050604061265d878288016121a2565b925050606085013567ffffffffffffffff81111561267e5761267d611fe5565b5b61268a878288016125e5565b91505092959194509250565b600080604083850312156126ad576126ac611fe0565b5b60006126bb85828601612257565b92505060206126cc85828601612257565b9150509250929050565b7f4e487b7100000000000000000000000000000000000000000000000000000000600052602260045260246000fd5b6000600282049050600182168061271d57607f821691505b6020821081036127305761272f6126d6565b5b50919050565b7f4552433732313a20617070726f76616c20746f2063757272656e74206f776e6560008201527f7200000000000000000000000000000000000000000000000000000000000000602082015250565b60006127926021836120e4565b915061279d82612736565b604082019050919050565b600060208201905081810360008301526127c181612785565b9050919050565b7f4552433732313a20617070726f76652063616c6c6572206973206e6f7420746f60008201527f6b656e206f776e6572206f7220617070726f76656420666f7220616c6c000000602082015250565b6000612824603d836120e4565b915061282f826127c8565b604082019050919050565b6000602082019050818103600083015261285381612817565b9050919050565b7f4552433732313a2063616c6c6572206973206e6f7420746f6b656e206f776e6560008201527f72206f7220617070726f76656400000000000000000000000000000000000000602082015250565b60006128b6602d836120e4565b91506128c18261285a565b604082019050919050565b600060208201905081810360008301526128e5816128a9565b9050919050565b600081905092915050565b6000612902826120d9565b61290c81856128ec565b935061291c8185602086016120f5565b80840191505092915050565b600061293482846128f7565b915081905092915050565b7f4e465420616c7265616479206d696e7465640000000000000000000000000000600082015250565b60006129756012836120e4565b91506129808261293f565b602082019050919050565b600060208201905081810360008301526129a481612968565b9050919050565b7f4d75737420686176652030206f72206d6f72652045746865722e000000000000600082015250565b60006129e1601a836120e4565b91506129ec826129ab565b602082019050919050565b60006020820190508181036000830152612a10816129d4565b9050919050565b7f4552433732313a20696e76616c696420746f6b656e2049440000000000000000600082015250565b6000612a4d6018836120e4565b9150612a5882612a17565b602082019050919050565b60006020820190508181036000830152612a7c81612a40565b9050919050565b7f4552433732313a2061646472657373207a65726f206973206e6f74206120766160008201527f6c6964206f776e65720000000000000000000000000000000000000000000000602082015250565b6000612adf6029836120e4565b9150612aea82612a83565b604082019050919050565b60006020820190508181036000830152612b0e81612ad2565b9050919050565b7f4f776e61626c653a206e6577206f776e657220697320746865207a65726f206160008201527f6464726573730000000000000000000000000000000000000000000000000000602082015250565b6000612b716026836120e4565b9150612b7c82612b15565b604082019050919050565b60006020820190508181036000830152612ba081612b64565b9050919050565b7f4552433732313a207472616e736665722066726f6d20696e636f72726563742060008201527f6f776e6572000000000000000000000000000000000000000000000000000000602082015250565b6000612c036025836120e4565b9150612c0e82612ba7565b604082019050919050565b60006020820190508181036000830152612c3281612bf6565b9050919050565b7f4552433732313a207472616e7366657220746f20746865207a65726f2061646460008201527f7265737300000000000000000000000000000000000000000000000000000000602082015250565b6000612c956024836120e4565b9150612ca082612c39565b604082019050919050565b60006020820190508181036000830152612cc481612c88565b9050919050565b7f45524337323155524953746f726167653a2055524920736574206f66206e6f6e60008201527f6578697374656e7420746f6b656e000000000000000000000000000000000000602082015250565b6000612d27602e836120e4565b9150612d3282612ccb565b604082019050919050565b60006020820190508181036000830152612d5681612d1a565b9050919050565b60008190508160005260206000209050919050565b60006020601f8301049050919050565b600082821b905092915050565b600060088302612dbf7fffffffffffffffffffffffffffffffffffffffffffffffffffffffffffffffff82612d82565b612dc98683612d82565b95508019841693508086168417925050509392505050565b6000819050919050565b6000612e06612e01612dfc846120a5565b612de1565b6120a5565b9050919050565b6000819050919050565b612e2083612deb565b612e34612e2c82612e0d565b848454612d8f565b825550505050565b600090565b612e49612e3c565b612e54818484612e17565b505050565b5b81811015612e7857612e6d600082612e41565b600181019050612e5a565b5050565b601f821115612ebd57612e8e81612d5d565b612e9784612d72565b81016020851015612ea6578190505b612eba612eb285612d72565b830182612e59565b50505b505050565b600082821c905092915050565b6000612ee060001984600802612ec2565b1980831691505092915050565b6000612ef98383612ecf565b9150826002028217905092915050565b612f12826120d9565b67ffffffffffffffff811115612f2b57612f2a612309565b5b612f358254612705565b612f40828285612e7c565b600060209050601f831160018114612f735760008415612f61578287015190505b612f6b8582612eed565b865550612fd3565b601f198416612f8186612d5d565b60005b82811015612fa957848901518255600182019150602085019450602081019050612f84565b86831015612fc65784890151612fc2601f891682612ecf565b8355505b6001600288020188555050505b505050505050565b7f4f776e61626c653a2063616c6c6572206973206e6f7420746865206f776e6572600082015250565b60006130116020836120e4565b915061301c82612fdb565b602082019050919050565b6000602082019050818103600083015261304081613004565b9050919050565b7f4552433732313a20617070726f766520746f2063616c6c657200000000000000600082015250565b600061307d6019836120e4565b915061308882613047565b602082019050919050565b600060208201905081810360008301526130ac81613070565b9050919050565b7f4552433732313a207472616e7366657220746f206e6f6e20455243373231526560008201527f63656976657220696d706c656d656e7465720000000000000000000000000000602082015250565b600061310f6032836120e4565b915061311a826130b3565b604082019050919050565b6000602082019050818103600083015261313e81613102565b9050919050565b600061315182856128f7565b915061315d82846128f7565b91508190509392505050565b7f4e487b7100000000000000000000000000000000000000000000000000000000600052601160045260246000fd5b60006131a3826120a5565b91506131ae836120a5565b92508282039050818111156131c6576131c5613169565b5b92915050565b60006131d7826120a5565b91506131e2836120a5565b92508282019050808211156131fa576131f9613169565b5b92915050565b600081519050919050565b600082825260208201905092915050565b600061322782613200565b613231818561320b565b93506132418185602086016120f5565b61324a8161211f565b840191505092915050565b600060808201905061326a6000830187612216565b6132776020830186612216565b61328460408301856120af565b8181036060830152613296818461321c565b905095945050505050565b6000815190506132b081612016565b92915050565b6000602082840312156132cc576132cb611fe0565b5b60006132da848285016132a1565b91505092915050565b7f4552433732313a206d696e7420746f20746865207a65726f2061646472657373600082015250565b60006133196020836120e4565b9150613324826132e3565b602082019050919050565b600060208201905081810360008301526133488161330c565b9050919050565b7f4552433732313a20746f6b656e20616c7265616479206d696e74656400000000600082015250565b6000613385601c836120e4565b91506133908261334f565b602082019050919050565b600060208201905081810360008301526133b481613378565b9050919050565b7f4e487b7100000000000000000000000000000000000000000000000000000000600052601260045260246000fdfe68747470733a2f2f666972656261736573746f726167652e676f6f676c65617069732e636f6d2f76302f622f776f772d616e746961666b2e61707073706f742e636f6d2f6f2fa26469706673582212207e5bb1fc1dd1d5c6c8faee3977f0f3a3646c4c86808852e95f0642af322363bd64736f6c63430008110033",
  "linkReferences": {},
  "deployedLinkReferences": {}
}